{
  "_format": "hh-sol-artifact-1",
  "contractName": "UhanmiNFTs",
  "sourceName": "contracts/UhanmiNFTs.sol",
  "abi": [
    {
      "inputs": [],
      "stateMutability": "nonpayable",
      "type": "constructor"
    },
    {
      "anonymous": false,
      "inputs": [
        {
          "indexed": true,
          "internalType": "address",
          "name": "owner",
          "type": "address"
        },
        {
          "indexed": true,
          "internalType": "address",
          "name": "approved",
          "type": "address"
        },
        {
          "indexed": true,
          "internalType": "uint256",
          "name": "tokenId",
          "type": "uint256"
        }
      ],
      "name": "Approval",
      "type": "event"
    },
    {
      "anonymous": false,
      "inputs": [
        {
          "indexed": true,
          "internalType": "address",
          "name": "owner",
          "type": "address"
        },
        {
          "indexed": true,
          "internalType": "address",
          "name": "operator",
          "type": "address"
        },
        {
          "indexed": false,
          "internalType": "bool",
          "name": "approved",
          "type": "bool"
        }
      ],
      "name": "ApprovalForAll",
      "type": "event"
    },
    {
      "anonymous": false,
      "inputs": [
        {
          "indexed": true,
          "internalType": "address",
          "name": "from",
          "type": "address"
        },
        {
          "indexed": true,
          "internalType": "address",
          "name": "to",
          "type": "address"
        },
        {
          "indexed": true,
          "internalType": "uint256",
          "name": "tokenId",
          "type": "uint256"
        }
      ],
      "name": "Transfer",
      "type": "event"
    },
    {
      "inputs": [
        {
          "internalType": "address",
          "name": "to",
          "type": "address"
        },
        {
          "internalType": "uint256",
          "name": "tokenId",
          "type": "uint256"
        }
      ],
      "name": "approve",
      "outputs": [],
      "stateMutability": "nonpayable",
      "type": "function"
    },
    {
      "inputs": [
        {
          "internalType": "address",
          "name": "owner",
          "type": "address"
        }
      ],
      "name": "balanceOf",
      "outputs": [
        {
          "internalType": "uint256",
          "name": "",
          "type": "uint256"
        }
      ],
      "stateMutability": "view",
      "type": "function"
    },
    {
      "inputs": [
        {
          "internalType": "uint256",
          "name": "tokenId",
          "type": "uint256"
        }
      ],
      "name": "getApproved",
      "outputs": [
        {
          "internalType": "address",
          "name": "",
          "type": "address"
        }
      ],
      "stateMutability": "view",
      "type": "function"
    },
    {
      "inputs": [
        {
          "internalType": "address",
          "name": "owner",
          "type": "address"
        },
        {
          "internalType": "address",
          "name": "operator",
          "type": "address"
        }
      ],
      "name": "isApprovedForAll",
      "outputs": [
        {
          "internalType": "bool",
          "name": "",
          "type": "bool"
        }
      ],
      "stateMutability": "view",
      "type": "function"
    },
    {
      "inputs": [
        {
          "internalType": "string",
          "name": "tokenURI",
          "type": "string"
        }
      ],
      "name": "mint",
      "outputs": [
        {
          "internalType": "uint256",
          "name": "",
          "type": "uint256"
        }
      ],
      "stateMutability": "nonpayable",
      "type": "function"
    },
    {
      "inputs": [],
      "name": "name",
      "outputs": [
        {
          "internalType": "string",
          "name": "",
          "type": "string"
        }
      ],
      "stateMutability": "view",
      "type": "function"
    },
    {
      "inputs": [],
      "name": "owner",
      "outputs": [
        {
          "internalType": "address",
          "name": "",
          "type": "address"
        }
      ],
      "stateMutability": "view",
      "type": "function"
    },
    {
      "inputs": [
        {
          "internalType": "uint256",
          "name": "tokenId",
          "type": "uint256"
        }
      ],
      "name": "ownerOf",
      "outputs": [
        {
          "internalType": "address",
          "name": "",
          "type": "address"
        }
      ],
      "stateMutability": "view",
      "type": "function"
    },
    {
      "inputs": [],
      "name": "promptDescription",
      "outputs": [
        {
          "internalType": "string",
          "name": "",
          "type": "string"
        }
      ],
      "stateMutability": "view",
      "type": "function"
    },
    {
      "inputs": [],
      "name": "promptURL",
      "outputs": [
        {
          "internalType": "string",
          "name": "",
          "type": "string"
        }
      ],
      "stateMutability": "view",
      "type": "function"
    },
    {
      "inputs": [
        {
          "internalType": "address",
          "name": "from",
          "type": "address"
        },
        {
          "internalType": "address",
          "name": "to",
          "type": "address"
        },
        {
          "internalType": "uint256",
          "name": "tokenId",
          "type": "uint256"
        }
      ],
      "name": "safeTransferFrom",
      "outputs": [],
      "stateMutability": "nonpayable",
      "type": "function"
    },
    {
      "inputs": [
        {
          "internalType": "address",
          "name": "from",
          "type": "address"
        },
        {
          "internalType": "address",
          "name": "to",
          "type": "address"
        },
        {
          "internalType": "uint256",
          "name": "tokenId",
          "type": "uint256"
        },
        {
          "internalType": "bytes",
          "name": "data",
          "type": "bytes"
        }
      ],
      "name": "safeTransferFrom",
      "outputs": [],
      "stateMutability": "nonpayable",
      "type": "function"
    },
    {
      "inputs": [
        {
          "internalType": "address",
          "name": "operator",
          "type": "address"
        },
        {
          "internalType": "bool",
          "name": "approved",
          "type": "bool"
        }
      ],
      "name": "setApprovalForAll",
      "outputs": [],
      "stateMutability": "nonpayable",
      "type": "function"
    },
    {
      "inputs": [
        {
          "internalType": "bytes4",
          "name": "interfaceId",
          "type": "bytes4"
        }
      ],
      "name": "supportsInterface",
      "outputs": [
        {
          "internalType": "bool",
          "name": "",
          "type": "bool"
        }
      ],
      "stateMutability": "view",
      "type": "function"
    },
    {
      "inputs": [],
      "name": "symbol",
      "outputs": [
        {
          "internalType": "string",
          "name": "",
          "type": "string"
        }
      ],
      "stateMutability": "view",
      "type": "function"
    },
    {
      "inputs": [
        {
          "internalType": "uint256",
          "name": "tokenId",
          "type": "uint256"
        }
      ],
      "name": "tokenURI",
      "outputs": [
        {
          "internalType": "string",
          "name": "",
          "type": "string"
        }
      ],
      "stateMutability": "view",
      "type": "function"
    },
    {
      "inputs": [],
      "name": "totalSupply",
      "outputs": [
        {
          "internalType": "uint256",
          "name": "",
          "type": "uint256"
        }
      ],
      "stateMutability": "view",
      "type": "function"
    },
    {
      "inputs": [
        {
          "internalType": "address",
          "name": "from",
          "type": "address"
        },
        {
          "internalType": "address",
          "name": "to",
          "type": "address"
        },
        {
          "internalType": "uint256",
          "name": "tokenId",
          "type": "uint256"
        }
      ],
      "name": "transferFrom",
      "outputs": [],
      "stateMutability": "nonpayable",
      "type": "function"
    }
  ],
  "bytecode": "0x60806040526040518060800160405280605081526020016200352f60509139600890816200002e919062000398565b503480156200003c57600080fd5b506040518060400160405280600a81526020017f5568616e6d694e465473000000000000000000000000000000000000000000008152506040518060400160405280600381526020017f55484d00000000000000000000000000000000000000000000000000000000008152508160009081620000ba919062000398565b508060019081620000cc919062000398565b50505033600960006101000a81548173ffffffffffffffffffffffffffffffffffffffff021916908373ffffffffffffffffffffffffffffffffffffffff1602179055506000600a819055506200047f565b600081519050919050565b7f4e487b7100000000000000000000000000000000000000000000000000000000600052604160045260246000fd5b7f4e487b7100000000000000000000000000000000000000000000000000000000600052602260045260246000fd5b60006002820490506001821680620001a057607f821691505b602082108103620001b657620001b562000158565b5b50919050565b60008190508160005260206000209050919050565b60006020601f8301049050919050565b600082821b905092915050565b600060088302620002207fffffffffffffffffffffffffffffffffffffffffffffffffffffffffffffffff82620001e1565b6200022c8683620001e1565b95508019841693508086168417925050509392505050565b6000819050919050565b6000819050919050565b600062000279620002736200026d8462000244565b6200024e565b62000244565b9050919050565b6000819050919050565b620002958362000258565b620002ad620002a48262000280565b848454620001ee565b825550505050565b600090565b620002c4620002b5565b620002d18184846200028a565b505050565b5b81811015620002f957620002ed600082620002ba565b600181019050620002d7565b5050565b601f82111562000348576200031281620001bc565b6200031d84620001d1565b810160208510156200032d578190505b620003456200033c85620001d1565b830182620002d6565b50505b505050565b600082821c905092915050565b60006200036d600019846008026200034d565b1980831691505092915050565b60006200038883836200035a565b9150826002028217905092915050565b620003a3826200011e565b67ffffffffffffffff811115620003bf57620003be62000129565b5b620003cb825462000187565b620003d8828285620002fd565b600060209050601f831160018114620004105760008415620003fb578287015190505b6200040785826200037a565b86555062000477565b601f1984166200042086620001bc565b60005b828110156200044a5784890151825560018201915060208501945060208101905062000423565b868310156200046a578489015162000466601f8916826200035a565b8355505b6001600288020188555050505b505050505050565b6130a0806200048f6000396000f3fe608060405234801561001057600080fd5b50600436106101165760003560e01c80638da5cb5b116100a2578063b88d4fde11610071578063b88d4fde146102e1578063c87b56dd146102fd578063d4734e381461032d578063d85d3d271461034b578063e985e9c51461037b57610116565b80638da5cb5b1461026b578063953637311461028957806395d89b41146102a7578063a22cb465146102c557610116565b806318160ddd116100e957806318160ddd146101b557806323b872dd146101d357806342842e0e146101ef5780636352211e1461020b57806370a082311461023b57610116565b806301ffc9a71461011b57806306fdde031461014b578063081812fc14610169578063095ea7b314610199575b600080fd5b61013560048036038101906101309190611d7f565b6103ab565b6040516101429190611dc7565b60405180910390f35b61015361048d565b6040516101609190611e72565b60405180910390f35b610183600480360381019061017e9190611eca565b61051f565b6040516101909190611f38565b60405180910390f35b6101b360048036038101906101ae9190611f7f565b610565565b005b6101bd61067c565b6040516101ca9190611fce565b60405180910390f35b6101ed60048036038101906101e89190611fe9565b610682565b005b61020960048036038101906102049190611fe9565b6106e2565b005b61022560048036038101906102209190611eca565b610702565b6040516102329190611f38565b60405180910390f35b6102556004803603810190610250919061203c565b610788565b6040516102629190611fce565b60405180910390f35b61027361083f565b6040516102809190611f38565b60405180910390f35b610291610865565b60405161029e9190611e72565b60405180910390f35b6102af6108f7565b6040516102bc9190611e72565b60405180910390f35b6102df60048036038101906102da9190612095565b610989565b005b6102fb60048036038101906102f6919061220a565b61099f565b005b61031760048036038101906103129190611eca565b610a01565b6040516103249190611e72565b60405180910390f35b610335610b13565b6040516103429190611e72565b60405180910390f35b6103656004803603810190610360919061232e565b610ba1565b6040516103729190611fce565b60405180910390f35b61039560048036038101906103909190612377565b610d11565b6040516103a29190611dc7565b60405180910390f35b60007f80ac58cd000000000000000000000000000000000000000000000000000000007bffffffffffffffffffffffffffffffffffffffffffffffffffffffff1916827bffffffffffffffffffffffffffffffffffffffffffffffffffffffff1916148061047657507f5b5e139f000000000000000000000000000000000000000000000000000000007bffffffffffffffffffffffffffffffffffffffffffffffffffffffff1916827bffffffffffffffffffffffffffffffffffffffffffffffffffffffff1916145b80610486575061048582610da5565b5b9050919050565b60606000805461049c906123e6565b80601f01602080910402602001604051908101604052809291908181526020018280546104c8906123e6565b80156105155780601f106104ea57610100808354040283529160200191610515565b820191906000526020600020905b8154815290600101906020018083116104f857829003601f168201915b5050505050905090565b600061052a82610e0f565b6004600083815260200190815260200160002060009054906101000a900473ffffffffffffffffffffffffffffffffffffffff169050919050565b600061057082610702565b90508073ffffffffffffffffffffffffffffffffffffffff168373ffffffffffffffffffffffffffffffffffffffff16036105e0576040517f08c379a00000000000000000000000000000000000000000000000000000000081526004016105d790612489565b60405180910390fd5b8073ffffffffffffffffffffffffffffffffffffffff166105ff610e5a565b73ffffffffffffffffffffffffffffffffffffffff16148061062e575061062d81610628610e5a565b610d11565b5b61066d576040517f08c379a00000000000000000000000000000000000000000000000000000000081526004016106649061251b565b60405180910390fd5b6106778383610e62565b505050565b600a5481565b61069361068d610e5a565b82610f1b565b6106d2576040517f08c379a00000000000000000000000000000000000000000000000000000000081526004016106c9906125ad565b60405180910390fd5b6106dd838383610fb0565b505050565b6106fd8383836040518060200160405280600081525061099f565b505050565b60008061070e836112a9565b9050600073ffffffffffffffffffffffffffffffffffffffff168173ffffffffffffffffffffffffffffffffffffffff160361077f576040517f08c379a000000000000000000000000000000000000000000000000000000000815260040161077690612619565b60405180910390fd5b80915050919050565b60008073ffffffffffffffffffffffffffffffffffffffff168273ffffffffffffffffffffffffffffffffffffffff16036107f8576040517f08c379a00000000000000000000000000000000000000000000000000000000081526004016107ef906126ab565b60405180910390fd5b600360008373ffffffffffffffffffffffffffffffffffffffff1673ffffffffffffffffffffffffffffffffffffffff168152602001908152602001600020549050919050565b600960009054906101000a900473ffffffffffffffffffffffffffffffffffffffff1681565b606060088054610874906123e6565b80601f01602080910402602001604051908101604052809291908181526020018280546108a0906123e6565b80156108ed5780601f106108c2576101008083540402835291602001916108ed565b820191906000526020600020905b8154815290600101906020018083116108d057829003601f168201915b5050505050905090565b606060018054610906906123e6565b80601f0160208091040260200160405190810160405280929190818152602001828054610932906123e6565b801561097f5780601f106109545761010080835404028352916020019161097f565b820191906000526020600020905b81548152906001019060200180831161096257829003601f168201915b5050505050905090565b61099b610994610e5a565b83836112e6565b5050565b6109b06109aa610e5a565b83610f1b565b6109ef576040517f08c379a00000000000000000000000000000000000000000000000000000000081526004016109e6906125ad565b60405180910390fd5b6109fb84848484611452565b50505050565b6060610a0c82610e0f565b6000600660008481526020019081526020016000208054610a2c906123e6565b80601f0160208091040260200160405190810160405280929190818152602001828054610a58906123e6565b8015610aa55780601f10610a7a57610100808354040283529160200191610aa5565b820191906000526020600020905b815481529060010190602001808311610a8857829003601f168201915b505050505090506000610ab66114ae565b90506000815103610acb578192505050610b0e565b600082511115610b00578082604051602001610ae8929190612707565b60405160208183030381529060405292505050610b0e565b610b09846114c5565b925050505b919050565b60088054610b20906123e6565b80601f0160208091040260200160405190810160405280929190818152602001828054610b4c906123e6565b8015610b995780601f10610b6e57610100808354040283529160200191610b99565b820191906000526020600020905b815481529060010190602001808311610b7c57829003601f168201915b505050505081565b6000600960009054906101000a900473ffffffffffffffffffffffffffffffffffffffff1673ffffffffffffffffffffffffffffffffffffffff163373ffffffffffffffffffffffffffffffffffffffff1614610c33576040517f08c379a0000000000000000000000000000000000000000000000000000000008152600401610c2a90612777565b60405180910390fd5b6006600a5410610c78576040517f08c379a0000000000000000000000000000000000000000000000000000000008152600401610c6f906127e3565b60405180910390fd5b610c82600761152d565b600a6000815480929190610c9590612832565b91905055506000610ca66007611543565b9050610cb23382611551565b610cbc818461176e565b6000620186a09050805a1015610d07576040517f08c379a0000000000000000000000000000000000000000000000000000000008152600401610cfe906128c6565b60405180910390fd5b8192505050919050565b6000600560008473ffffffffffffffffffffffffffffffffffffffff1673ffffffffffffffffffffffffffffffffffffffff16815260200190815260200160002060008373ffffffffffffffffffffffffffffffffffffffff1673ffffffffffffffffffffffffffffffffffffffff16815260200190815260200160002060009054906101000a900460ff16905092915050565b60007f01ffc9a7000000000000000000000000000000000000000000000000000000007bffffffffffffffffffffffffffffffffffffffffffffffffffffffff1916827bffffffffffffffffffffffffffffffffffffffffffffffffffffffff1916149050919050565b610e18816117db565b610e57576040517f08c379a0000000000000000000000000000000000000000000000000000000008152600401610e4e90612619565b60405180910390fd5b50565b600033905090565b816004600083815260200190815260200160002060006101000a81548173ffffffffffffffffffffffffffffffffffffffff021916908373ffffffffffffffffffffffffffffffffffffffff160217905550808273ffffffffffffffffffffffffffffffffffffffff16610ed583610702565b73ffffffffffffffffffffffffffffffffffffffff167f8c5be1e5ebec7d5bd14f71427d1e84f3dd0314c0f7b2291e5b200ac8c7c3b92560405160405180910390a45050565b600080610f2783610702565b90508073ffffffffffffffffffffffffffffffffffffffff168473ffffffffffffffffffffffffffffffffffffffff161480610f695750610f688185610d11565b5b80610fa757508373ffffffffffffffffffffffffffffffffffffffff16610f8f8461051f565b73ffffffffffffffffffffffffffffffffffffffff16145b91505092915050565b8273ffffffffffffffffffffffffffffffffffffffff16610fd082610702565b73ffffffffffffffffffffffffffffffffffffffff1614611026576040517f08c379a000000000000000000000000000000000000000000000000000000000815260040161101d90612958565b60405180910390fd5b600073ffffffffffffffffffffffffffffffffffffffff168273ffffffffffffffffffffffffffffffffffffffff1603611095576040517f08c379a000000000000000000000000000000000000000000000000000000000815260040161108c906129ea565b60405180910390fd5b6110a2838383600161181c565b8273ffffffffffffffffffffffffffffffffffffffff166110c282610702565b73ffffffffffffffffffffffffffffffffffffffff1614611118576040517f08c379a000000000000000000000000000000000000000000000000000000000815260040161110f90612958565b60405180910390fd5b6004600082815260200190815260200160002060006101000a81549073ffffffffffffffffffffffffffffffffffffffff02191690556001600360008573ffffffffffffffffffffffffffffffffffffffff1673ffffffffffffffffffffffffffffffffffffffff168152602001908152602001600020600082825403925050819055506001600360008473ffffffffffffffffffffffffffffffffffffffff1673ffffffffffffffffffffffffffffffffffffffff16815260200190815260200160002060008282540192505081905550816002600083815260200190815260200160002060006101000a81548173ffffffffffffffffffffffffffffffffffffffff021916908373ffffffffffffffffffffffffffffffffffffffff160217905550808273ffffffffffffffffffffffffffffffffffffffff168473ffffffffffffffffffffffffffffffffffffffff167fddf252ad1be2c89b69c2b068fc378daa952ba7f163c4a11628f55a4df523b3ef60405160405180910390a46112a48383836001611942565b505050565b60006002600083815260200190815260200160002060009054906101000a900473ffffffffffffffffffffffffffffffffffffffff169050919050565b8173ffffffffffffffffffffffffffffffffffffffff168373ffffffffffffffffffffffffffffffffffffffff1603611354576040517f08c379a000000000000000000000000000000000000000000000000000000000815260040161134b90612a56565b60405180910390fd5b80600560008573ffffffffffffffffffffffffffffffffffffffff1673ffffffffffffffffffffffffffffffffffffffff16815260200190815260200160002060008473ffffffffffffffffffffffffffffffffffffffff1673ffffffffffffffffffffffffffffffffffffffff16815260200190815260200160002060006101000a81548160ff0219169083151502179055508173ffffffffffffffffffffffffffffffffffffffff168373ffffffffffffffffffffffffffffffffffffffff167f17307eab39ab6107e8899845ad3d59bd9653f200f220920489ca2b5937696c31836040516114459190611dc7565b60405180910390a3505050565b61145d848484610fb0565b61146984848484611948565b6114a8576040517f08c379a000000000000000000000000000000000000000000000000000000000815260040161149f90612ae8565b60405180910390fd5b50505050565b606060405180602001604052806000815250905090565b60606114d082610e0f565b60006114da6114ae565b905060008151116114fa5760405180602001604052806000815250611525565b8061150484611acf565b604051602001611515929190612707565b6040516020818303038152906040525b915050919050565b6001816000016000828254019250508190555050565b600081600001549050919050565b600073ffffffffffffffffffffffffffffffffffffffff168273ffffffffffffffffffffffffffffffffffffffff16036115c0576040517f08c379a00000000000000000000000000000000000000000000000000000000081526004016115b790612b54565b60405180910390fd5b6115c9816117db565b15611609576040517f08c379a000000000000000000000000000000000000000000000000000000000815260040161160090612bc0565b60405180910390fd5b61161760008383600161181c565b611620816117db565b15611660576040517f08c379a000000000000000000000000000000000000000000000000000000000815260040161165790612bc0565b60405180910390fd5b6001600360008473ffffffffffffffffffffffffffffffffffffffff1673ffffffffffffffffffffffffffffffffffffffff16815260200190815260200160002060008282540192505081905550816002600083815260200190815260200160002060006101000a81548173ffffffffffffffffffffffffffffffffffffffff021916908373ffffffffffffffffffffffffffffffffffffffff160217905550808273ffffffffffffffffffffffffffffffffffffffff16600073ffffffffffffffffffffffffffffffffffffffff167fddf252ad1be2c89b69c2b068fc378daa952ba7f163c4a11628f55a4df523b3ef60405160405180910390a461176a600083836001611942565b5050565b611777826117db565b6117b6576040517f08c379a00000000000000000000000000000000000000000000000000000000081526004016117ad90612c52565b60405180910390fd5b806006600084815260200190815260200160002090816117d69190612e1e565b505050565b60008073ffffffffffffffffffffffffffffffffffffffff166117fd836112a9565b73ffffffffffffffffffffffffffffffffffffffff1614159050919050565b600181111561193c57600073ffffffffffffffffffffffffffffffffffffffff168473ffffffffffffffffffffffffffffffffffffffff16146118b05780600360008673ffffffffffffffffffffffffffffffffffffffff1673ffffffffffffffffffffffffffffffffffffffff16815260200190815260200160002060008282546118a89190612ef0565b925050819055505b600073ffffffffffffffffffffffffffffffffffffffff168373ffffffffffffffffffffffffffffffffffffffff161461193b5780600360008573ffffffffffffffffffffffffffffffffffffffff1673ffffffffffffffffffffffffffffffffffffffff16815260200190815260200160002060008282546119339190612f24565b925050819055505b5b50505050565b50505050565b60006119698473ffffffffffffffffffffffffffffffffffffffff16611b9d565b15611ac2578373ffffffffffffffffffffffffffffffffffffffff1663150b7a02611992610e5a565b8786866040518563ffffffff1660e01b81526004016119b49493929190612fad565b6020604051808303816000875af19250505080156119f057506040513d601f19601f820116820180604052508101906119ed919061300e565b60015b611a72573d8060008114611a20576040519150601f19603f3d011682016040523d82523d6000602084013e611a25565b606091505b506000815103611a6a576040517f08c379a0000000000000000000000000000000000000000000000000000000008152600401611a6190612ae8565b60405180910390fd5b805181602001fd5b63150b7a0260e01b7bffffffffffffffffffffffffffffffffffffffffffffffffffffffff1916817bffffffffffffffffffffffffffffffffffffffffffffffffffffffff191614915050611ac7565b600190505b949350505050565b606060006001611ade84611bc0565b01905060008167ffffffffffffffff811115611afd57611afc6120df565b5b6040519080825280601f01601f191660200182016040528015611b2f5781602001600182028036833780820191505090505b509050600082602001820190505b600115611b92578080600190039150507f3031323334353637383961626364656600000000000000000000000000000000600a86061a8153600a8581611b8657611b8561303b565b5b04945060008503611b3d575b819350505050919050565b6000808273ffffffffffffffffffffffffffffffffffffffff163b119050919050565b600080600090507a184f03e93ff9f4daa797ed6e38ed64bf6a1f0100000000000000008310611c1e577a184f03e93ff9f4daa797ed6e38ed64bf6a1f0100000000000000008381611c1457611c1361303b565b5b0492506040810190505b6d04ee2d6d415b85acef81000000008310611c5b576d04ee2d6d415b85acef81000000008381611c5157611c5061303b565b5b0492506020810190505b662386f26fc100008310611c8a57662386f26fc100008381611c8057611c7f61303b565b5b0492506010810190505b6305f5e1008310611cb3576305f5e1008381611ca957611ca861303b565b5b0492506008810190505b6127108310611cd8576127108381611cce57611ccd61303b565b5b0492506004810190505b60648310611cfb5760648381611cf157611cf061303b565b5b0492506002810190505b600a8310611d0a576001810190505b80915050919050565b6000604051905090565b600080fd5b600080fd5b60007fffffffff0000000000000000000000000000000000000000000000000000000082169050919050565b611d5c81611d27565b8114611d6757600080fd5b50565b600081359050611d7981611d53565b92915050565b600060208284031215611d9557611d94611d1d565b5b6000611da384828501611d6a565b91505092915050565b60008115159050919050565b611dc181611dac565b82525050565b6000602082019050611ddc6000830184611db8565b92915050565b600081519050919050565b600082825260208201905092915050565b60005b83811015611e1c578082015181840152602081019050611e01565b60008484015250505050565b6000601f19601f8301169050919050565b6000611e4482611de2565b611e4e8185611ded565b9350611e5e818560208601611dfe565b611e6781611e28565b840191505092915050565b60006020820190508181036000830152611e8c8184611e39565b905092915050565b6000819050919050565b611ea781611e94565b8114611eb257600080fd5b50565b600081359050611ec481611e9e565b92915050565b600060208284031215611ee057611edf611d1d565b5b6000611eee84828501611eb5565b91505092915050565b600073ffffffffffffffffffffffffffffffffffffffff82169050919050565b6000611f2282611ef7565b9050919050565b611f3281611f17565b82525050565b6000602082019050611f4d6000830184611f29565b92915050565b611f5c81611f17565b8114611f6757600080fd5b50565b600081359050611f7981611f53565b92915050565b60008060408385031215611f9657611f95611d1d565b5b6000611fa485828601611f6a565b9250506020611fb585828601611eb5565b9150509250929050565b611fc881611e94565b82525050565b6000602082019050611fe36000830184611fbf565b92915050565b60008060006060848603121561200257612001611d1d565b5b600061201086828701611f6a565b935050602061202186828701611f6a565b925050604061203286828701611eb5565b9150509250925092565b60006020828403121561205257612051611d1d565b5b600061206084828501611f6a565b91505092915050565b61207281611dac565b811461207d57600080fd5b50565b60008135905061208f81612069565b92915050565b600080604083850312156120ac576120ab611d1d565b5b60006120ba85828601611f6a565b92505060206120cb85828601612080565b9150509250929050565b600080fd5b600080fd5b7f4e487b7100000000000000000000000000000000000000000000000000000000600052604160045260246000fd5b61211782611e28565b810181811067ffffffffffffffff82111715612136576121356120df565b5b80604052505050565b6000612149611d13565b9050612155828261210e565b919050565b600067ffffffffffffffff821115612175576121746120df565b5b61217e82611e28565b9050602081019050919050565b82818337600083830152505050565b60006121ad6121a88461215a565b61213f565b9050828152602081018484840111156121c9576121c86120da565b5b6121d484828561218b565b509392505050565b600082601f8301126121f1576121f06120d5565b5b813561220184826020860161219a565b91505092915050565b6000806000806080858703121561222457612223611d1d565b5b600061223287828801611f6a565b945050602061224387828801611f6a565b935050604061225487828801611eb5565b925050606085013567ffffffffffffffff81111561227557612274611d22565b5b612281878288016121dc565b91505092959194509250565b600067ffffffffffffffff8211156122a8576122a76120df565b5b6122b182611e28565b9050602081019050919050565b60006122d16122cc8461228d565b61213f565b9050828152602081018484840111156122ed576122ec6120da565b5b6122f884828561218b565b509392505050565b600082601f830112612315576123146120d5565b5b81356123258482602086016122be565b91505092915050565b60006020828403121561234457612343611d1d565b5b600082013567ffffffffffffffff81111561236257612361611d22565b5b61236e84828501612300565b91505092915050565b6000806040838503121561238e5761238d611d1d565b5b600061239c85828601611f6a565b92505060206123ad85828601611f6a565b9150509250929050565b7f4e487b7100000000000000000000000000000000000000000000000000000000600052602260045260246000fd5b600060028204905060018216806123fe57607f821691505b602082108103612411576124106123b7565b5b50919050565b7f4552433732313a20617070726f76616c20746f2063757272656e74206f776e6560008201527f7200000000000000000000000000000000000000000000000000000000000000602082015250565b6000612473602183611ded565b915061247e82612417565b604082019050919050565b600060208201905081810360008301526124a281612466565b9050919050565b7f4552433732313a20617070726f76652063616c6c6572206973206e6f7420746f60008201527f6b656e206f776e6572206f7220617070726f76656420666f7220616c6c000000602082015250565b6000612505603d83611ded565b9150612510826124a9565b604082019050919050565b60006020820190508181036000830152612534816124f8565b9050919050565b7f4552433732313a2063616c6c6572206973206e6f7420746f6b656e206f776e6560008201527f72206f7220617070726f76656400000000000000000000000000000000000000602082015250565b6000612597602d83611ded565b91506125a28261253b565b604082019050919050565b600060208201905081810360008301526125c68161258a565b9050919050565b7f4552433732313a20696e76616c696420746f6b656e2049440000000000000000600082015250565b6000612603601883611ded565b915061260e826125cd565b602082019050919050565b60006020820190508181036000830152612632816125f6565b9050919050565b7f4552433732313a2061646472657373207a65726f206973206e6f74206120766160008201527f6c6964206f776e65720000000000000000000000000000000000000000000000602082015250565b6000612695602983611ded565b91506126a082612639565b604082019050919050565b600060208201905081810360008301526126c481612688565b9050919050565b600081905092915050565b60006126e182611de2565b6126eb81856126cb565b93506126fb818560208601611dfe565b80840191505092915050565b600061271382856126d6565b915061271f82846126d6565b91508190509392505050565b7f4f6e6c79206f776e65722063616e206d696e74206e657720746f6b656e730000600082015250565b6000612761601e83611ded565b915061276c8261272b565b602082019050919050565b6000602082019050818103600083015261279081612754565b9050919050565b7f546f74616c20737570706c792072656163686564000000000000000000000000600082015250565b60006127cd601483611ded565b91506127d882612797565b602082019050919050565b600060208201905081810360008301526127fc816127c0565b9050919050565b7f4e487b7100000000000000000000000000000000000000000000000000000000600052601160045260246000fd5b600061283d82611e94565b91507fffffffffffffffffffffffffffffffffffffffffffffffffffffffffffffffff820361286f5761286e612803565b5b600182019050919050565b7f476173206c696d69742072656163686564000000000000000000000000000000600082015250565b60006128b0601183611ded565b91506128bb8261287a565b602082019050919050565b600060208201905081810360008301526128df816128a3565b9050919050565b7f4552433732313a207472616e736665722066726f6d20696e636f72726563742060008201527f6f776e6572000000000000000000000000000000000000000000000000000000602082015250565b6000612942602583611ded565b915061294d826128e6565b604082019050919050565b6000602082019050818103600083015261297181612935565b9050919050565b7f4552433732313a207472616e7366657220746f20746865207a65726f2061646460008201527f7265737300000000000000000000000000000000000000000000000000000000602082015250565b60006129d4602483611ded565b91506129df82612978565b604082019050919050565b60006020820190508181036000830152612a03816129c7565b9050919050565b7f4552433732313a20617070726f766520746f2063616c6c657200000000000000600082015250565b6000612a40601983611ded565b9150612a4b82612a0a565b602082019050919050565b60006020820190508181036000830152612a6f81612a33565b9050919050565b7f4552433732313a207472616e7366657220746f206e6f6e20455243373231526560008201527f63656976657220696d706c656d656e7465720000000000000000000000000000602082015250565b6000612ad2603283611ded565b9150612add82612a76565b604082019050919050565b60006020820190508181036000830152612b0181612ac5565b9050919050565b7f4552433732313a206d696e7420746f20746865207a65726f2061646472657373600082015250565b6000612b3e602083611ded565b9150612b4982612b08565b602082019050919050565b60006020820190508181036000830152612b6d81612b31565b9050919050565b7f4552433732313a20746f6b656e20616c7265616479206d696e74656400000000600082015250565b6000612baa601c83611ded565b9150612bb582612b74565b602082019050919050565b60006020820190508181036000830152612bd981612b9d565b9050919050565b7f45524337323155524953746f726167653a2055524920736574206f66206e6f6e60008201527f6578697374656e7420746f6b656e000000000000000000000000000000000000602082015250565b6000612c3c602e83611ded565b9150612c4782612be0565b604082019050919050565b60006020820190508181036000830152612c6b81612c2f565b9050919050565b60008190508160005260206000209050919050565b60006020601f8301049050919050565b600082821b905092915050565b600060088302612cd47fffffffffffffffffffffffffffffffffffffffffffffffffffffffffffffffff82612c97565b612cde8683612c97565b95508019841693508086168417925050509392505050565b6000819050919050565b6000612d1b612d16612d1184611e94565b612cf6565b611e94565b9050919050565b6000819050919050565b612d3583612d00565b612d49612d4182612d22565b848454612ca4565b825550505050565b600090565b612d5e612d51565b612d69818484612d2c565b505050565b5b81811015612d8d57612d82600082612d56565b600181019050612d6f565b5050565b601f821115612dd257612da381612c72565b612dac84612c87565b81016020851015612dbb578190505b612dcf612dc785612c87565b830182612d6e565b50505b505050565b600082821c905092915050565b6000612df560001984600802612dd7565b1980831691505092915050565b6000612e0e8383612de4565b9150826002028217905092915050565b612e2782611de2565b67ffffffffffffffff811115612e4057612e3f6120df565b5b612e4a82546123e6565b612e55828285612d91565b600060209050601f831160018114612e885760008415612e76578287015190505b612e808582612e02565b865550612ee8565b601f198416612e9686612c72565b60005b82811015612ebe57848901518255600182019150602085019450602081019050612e99565b86831015612edb5784890151612ed7601f891682612de4565b8355505b6001600288020188555050505b505050505050565b6000612efb82611e94565b9150612f0683611e94565b9250828203905081811115612f1e57612f1d612803565b5b92915050565b6000612f2f82611e94565b9150612f3a83611e94565b9250828201905080821115612f5257612f51612803565b5b92915050565b600081519050919050565b600082825260208201905092915050565b6000612f7f82612f58565b612f898185612f63565b9350612f99818560208601611dfe565b612fa281611e28565b840191505092915050565b6000608082019050612fc26000830187611f29565b612fcf6020830186611f29565b612fdc6040830185611fbf565b8181036060830152612fee8184612f74565b905095945050505050565b60008151905061300881611d53565b92915050565b60006020828403121561302457613023611d1d565b5b600061303284828501612ff9565b91505092915050565b7f4e487b7100000000000000000000000000000000000000000000000000000000600052601260045260246000fdfea26469706673582212209ba8ee3f94782376d0d68bd73a47895807dfd124ce7ef22aa1a39b4bb403618964736f6c6343000812003368747470733a2f2f676174657761792e70696e6174612e636c6f75642f697066732f516d5a46355333336f587465455a6935527073516970743255646d5a36596d454e78333270366b544c6151705852",
  "linkReferences": {},
  "deployedLinkReferences": {}
}